{
  "_format": "hh-sol-artifact-1",
  "contractName": "Governance",
  "sourceName": "contracts/Governance.sol",
  "abi": [
    {
      "inputs": [
        {
          "internalType": "address",
          "name": "_governanceToken",
          "type": "address"
        },
        {
          "internalType": "uint256",
          "name": "_votingPeriod",
          "type": "uint256"
        },
        {
          "internalType": "uint256",
          "name": "_quorumPercentage",
          "type": "uint256"
        }
      ],
      "stateMutability": "nonpayable",
      "type": "constructor"
    },
    {
      "anonymous": false,
      "inputs": [
        {
          "indexed": true,
          "internalType": "uint256",
          "name": "proposalId",
          "type": "uint256"
        },
        {
          "indexed": true,
          "internalType": "address",
          "name": "proposer",
          "type": "address"
        },
        {
          "indexed": false,
          "internalType": "string",
          "name": "description",
          "type": "string"
        }
      ],
      "name": "ProposalCreated",
      "type": "event"
    },
    {
      "anonymous": false,
      "inputs": [
        {
          "indexed": true,
          "internalType": "uint256",
          "name": "proposalId",
          "type": "uint256"
        }
      ],
      "name": "ProposalExecuted",
      "type": "event"
    },
    {
      "anonymous": false,
      "inputs": [
        {
          "indexed": true,
          "internalType": "uint256",
          "name": "proposalId",
          "type": "uint256"
        },
        {
          "indexed": true,
          "internalType": "address",
          "name": "voter",
          "type": "address"
        },
        {
          "indexed": false,
          "internalType": "bool",
          "name": "support",
          "type": "bool"
        },
        {
          "indexed": false,
          "internalType": "uint256",
          "name": "votes",
          "type": "uint256"
        }
      ],
      "name": "Voted",
      "type": "event"
    },
    {
      "inputs": [
        {
          "internalType": "string",
          "name": "_description",
          "type": "string"
        }
      ],
      "name": "createProposal",
      "outputs": [],
      "stateMutability": "nonpayable",
      "type": "function"
    },
    {
      "inputs": [
        {
          "internalType": "uint256",
          "name": "_proposalId",
          "type": "uint256"
        }
      ],
      "name": "executeProposal",
      "outputs": [],
      "stateMutability": "nonpayable",
      "type": "function"
    },
    {
      "inputs": [
        {
          "internalType": "uint256",
          "name": "_proposalId",
          "type": "uint256"
        }
      ],
      "name": "getProposalDetails",
      "outputs": [
        {
          "internalType": "uint256",
          "name": "id",
          "type": "uint256"
        },
        {
          "internalType": "address",
          "name": "proposer",
          "type": "address"
        },
        {
          "internalType": "string",
          "name": "description",
          "type": "string"
        },
        {
          "internalType": "uint256",
          "name": "forVotes",
          "type": "uint256"
        },
        {
          "internalType": "uint256",
          "name": "againstVotes",
          "type": "uint256"
        },
        {
          "internalType": "uint256",
          "name": "startTime",
          "type": "uint256"
        },
        {
          "internalType": "uint256",
          "name": "endTime",
          "type": "uint256"
        },
        {
          "internalType": "bool",
          "name": "executed",
          "type": "bool"
        }
      ],
      "stateMutability": "view",
      "type": "function"
    },
    {
      "inputs": [],
      "name": "governanceToken",
      "outputs": [
        {
          "internalType": "contract IERC20",
          "name": "",
          "type": "address"
        }
      ],
      "stateMutability": "view",
      "type": "function"
    },
    {
      "inputs": [],
      "name": "proposalCount",
      "outputs": [
        {
          "internalType": "uint256",
          "name": "",
          "type": "uint256"
        }
      ],
      "stateMutability": "view",
      "type": "function"
    },
    {
      "inputs": [
        {
          "internalType": "uint256",
          "name": "",
          "type": "uint256"
        }
      ],
      "name": "proposals",
      "outputs": [
        {
          "internalType": "uint256",
          "name": "id",
          "type": "uint256"
        },
        {
          "internalType": "address",
          "name": "proposer",
          "type": "address"
        },
        {
          "internalType": "string",
          "name": "description",
          "type": "string"
        },
        {
          "internalType": "uint256",
          "name": "forVotes",
          "type": "uint256"
        },
        {
          "internalType": "uint256",
          "name": "againstVotes",
          "type": "uint256"
        },
        {
          "internalType": "uint256",
          "name": "startTime",
          "type": "uint256"
        },
        {
          "internalType": "uint256",
          "name": "endTime",
          "type": "uint256"
        },
        {
          "internalType": "bool",
          "name": "executed",
          "type": "bool"
        }
      ],
      "stateMutability": "view",
      "type": "function"
    },
    {
      "inputs": [],
      "name": "quorumPercentage",
      "outputs": [
        {
          "internalType": "uint256",
          "name": "",
          "type": "uint256"
        }
      ],
      "stateMutability": "view",
      "type": "function"
    },
    {
      "inputs": [
        {
          "internalType": "uint256",
          "name": "_proposalId",
          "type": "uint256"
        },
        {
          "internalType": "bool",
          "name": "_support",
          "type": "bool"
        }
      ],
      "name": "vote",
      "outputs": [],
      "stateMutability": "nonpayable",
      "type": "function"
    },
    {
      "inputs": [],
      "name": "votingPeriod",
      "outputs": [
        {
          "internalType": "uint256",
          "name": "",
          "type": "uint256"
        }
      ],
      "stateMutability": "view",
      "type": "function"
    }
  ],
  "bytecode": "0x608060405234801561001057600080fd5b5060405161192738038061192783398181016040528101906100329190610121565b826000806101000a81548173ffffffffffffffffffffffffffffffffffffffff021916908373ffffffffffffffffffffffffffffffffffffffff1602179055508160028190555080600381905550505050610174565b600080fd5b600073ffffffffffffffffffffffffffffffffffffffff82169050919050565b60006100b88261008d565b9050919050565b6100c8816100ad565b81146100d357600080fd5b50565b6000815190506100e5816100bf565b92915050565b6000819050919050565b6100fe816100eb565b811461010957600080fd5b50565b60008151905061011b816100f5565b92915050565b60008060006060848603121561013a57610139610088565b5b6000610148868287016100d6565b93505060206101598682870161010c565b925050604061016a8682870161010c565b9150509250925092565b6117a4806101836000396000f3fe608060405234801561001057600080fd5b50600436106100935760003560e01c806349c2a1a61161006657806349c2a1a6146101405780634fa76ec91461015c578063c9d27afe1461017a578063da35c66414610196578063f96dae0a146101b457610093565b8063013cf08b1461009857806302a251a3146100cf5780630d61b519146100ed5780633b4d01a714610109575b600080fd5b6100b260048036038101906100ad9190610b39565b6101d2565b6040516100c6989796959493929190610c61565b60405180910390f35b6100d76102cf565b6040516100e49190610ce6565b60405180910390f35b61010760048036038101906101029190610b39565b6102d5565b005b610123600480360381019061011e9190610b39565b6104ec565b604051610137989796959493929190610c61565b60405180910390f35b61015a60048036038101906101559190610e36565b61060b565b005b6101646107ed565b6040516101719190610ce6565b60405180910390f35b610194600480360381019061018f9190610eab565b6107f3565b005b61019e610ac5565b6040516101ab9190610ce6565b60405180910390f35b6101bc610acb565b6040516101c99190610f4a565b60405180910390f35b60046020528060005260406000206000915090508060000154908060010160009054906101000a900473ffffffffffffffffffffffffffffffffffffffff169080600201805461022190610f94565b80601f016020809104026020016040519081016040528092919081815260200182805461024d90610f94565b801561029a5780601f1061026f5761010080835404028352916020019161029a565b820191906000526020600020905b81548152906001019060200180831161027d57829003601f168201915b5050505050908060030154908060040154908060050154908060060154908060070160009054906101000a900460ff16905088565b60025481565b600060046000838152602001908152602001600020905080600601544211610332576040517f08c379a000000000000000000000000000000000000000000000000000000000815260040161032990611011565b60405180910390fd5b8060070160009054906101000a900460ff1615610384576040517f08c379a000000000000000000000000000000000000000000000000000000000815260040161037b9061107d565b60405180910390fd5b60008160040154826003015461039a91906110cc565b90506000606460035460008054906101000a900473ffffffffffffffffffffffffffffffffffffffff1673ffffffffffffffffffffffffffffffffffffffff166318160ddd6040518163ffffffff1660e01b8152600401602060405180830381865afa15801561040e573d6000803e3d6000fd5b505050506040513d601f19601f820116820180604052508101906104329190611115565b61043c9190611142565b61044691906111b3565b90508082101561048b576040517f08c379a000000000000000000000000000000000000000000000000000000000815260040161048290611230565b60405180910390fd5b8260040154836003015411156104e65760018360070160006101000a81548160ff021916908315150217905550837f712ae1383f79ac853f8d882153778e0260ef8f03b504e2866e0593e04d2b291f60405160405180910390a25b50505050565b6000806060600080600080600080600460008b8152602001908152602001600020905080600001548160010160009054906101000a900473ffffffffffffffffffffffffffffffffffffffff168260020183600301548460040154856005015486600601548760070160009054906101000a900460ff1685805461056f90610f94565b80601f016020809104026020016040519081016040528092919081815260200182805461059b90610f94565b80156105e85780601f106105bd576101008083540402835291602001916105e8565b820191906000526020600020905b8154815290600101906020018083116105cb57829003601f168201915b505050505095509850985098509850985098509850985050919395975091939597565b60008060009054906101000a900473ffffffffffffffffffffffffffffffffffffffff1673ffffffffffffffffffffffffffffffffffffffff166370a08231336040518263ffffffff1660e01b81526004016106679190611250565b602060405180830381865afa158015610684573d6000803e3d6000fd5b505050506040513d601f19601f820116820180604052508101906106a89190611115565b116106e8576040517f08c379a00000000000000000000000000000000000000000000000000000000081526004016106df906112dd565b60405180910390fd5b600160008154809291906106fb906112fd565b9190505550600060046000600154815260200190815260200160002090506001548160000181905550338160010160006101000a81548173ffffffffffffffffffffffffffffffffffffffff021916908373ffffffffffffffffffffffffffffffffffffffff1602179055508181600201908161077891906114e7565b504281600501819055506002544261079091906110cc565b81600601819055503373ffffffffffffffffffffffffffffffffffffffff166001547f7585f467599d0f008985f231af99293be388626ac16ca59505c2f8f88969cd63846040516107e191906115b9565b60405180910390a35050565b60035481565b600060046000848152602001908152602001600020905080600501544210158015610822575080600601544211155b610861576040517f08c379a000000000000000000000000000000000000000000000000000000000815260040161085890611627565b60405180910390fd5b8060080160003373ffffffffffffffffffffffffffffffffffffffff1673ffffffffffffffffffffffffffffffffffffffff16815260200190815260200160002060009054906101000a900460ff16156108f0576040517f08c379a00000000000000000000000000000000000000000000000000000000081526004016108e790611693565b60405180910390fd5b60008060009054906101000a900473ffffffffffffffffffffffffffffffffffffffff1673ffffffffffffffffffffffffffffffffffffffff166370a08231336040518263ffffffff1660e01b815260040161094c9190611250565b602060405180830381865afa158015610969573d6000803e3d6000fd5b505050506040513d601f19601f8201168201806040525081019061098d9190611115565b9050600081116109d2576040517f08c379a00000000000000000000000000000000000000000000000000000000081526004016109c990611725565b60405180910390fd5b82156109f857808260030160008282546109ec91906110cc565b92505081905550610a14565b80826004016000828254610a0c91906110cc565b925050819055505b60018260080160003373ffffffffffffffffffffffffffffffffffffffff1673ffffffffffffffffffffffffffffffffffffffff16815260200190815260200160002060006101000a81548160ff0219169083151502179055503373ffffffffffffffffffffffffffffffffffffffff16847f7c2de587c00d75474a0c6c6fa96fd3b45dc974cd4e8a75f712bb84c950dce1b58584604051610ab7929190611745565b60405180910390a350505050565b60015481565b60008054906101000a900473ffffffffffffffffffffffffffffffffffffffff1681565b6000604051905090565b600080fd5b600080fd5b6000819050919050565b610b1681610b03565b8114610b2157600080fd5b50565b600081359050610b3381610b0d565b92915050565b600060208284031215610b4f57610b4e610af9565b5b6000610b5d84828501610b24565b91505092915050565b610b6f81610b03565b82525050565b600073ffffffffffffffffffffffffffffffffffffffff82169050919050565b6000610ba082610b75565b9050919050565b610bb081610b95565b82525050565b600081519050919050565b600082825260208201905092915050565b60005b83811015610bf0578082015181840152602081019050610bd5565b60008484015250505050565b6000601f19601f8301169050919050565b6000610c1882610bb6565b610c228185610bc1565b9350610c32818560208601610bd2565b610c3b81610bfc565b840191505092915050565b60008115159050919050565b610c5b81610c46565b82525050565b600061010082019050610c77600083018b610b66565b610c84602083018a610ba7565b8181036040830152610c968189610c0d565b9050610ca56060830188610b66565b610cb26080830187610b66565b610cbf60a0830186610b66565b610ccc60c0830185610b66565b610cd960e0830184610c52565b9998505050505050505050565b6000602082019050610cfb6000830184610b66565b92915050565b600080fd5b600080fd5b7f4e487b7100000000000000000000000000000000000000000000000000000000600052604160045260246000fd5b610d4382610bfc565b810181811067ffffffffffffffff82111715610d6257610d61610d0b565b5b80604052505050565b6000610d75610aef565b9050610d818282610d3a565b919050565b600067ffffffffffffffff821115610da157610da0610d0b565b5b610daa82610bfc565b9050602081019050919050565b82818337600083830152505050565b6000610dd9610dd484610d86565b610d6b565b905082815260208101848484011115610df557610df4610d06565b5b610e00848285610db7565b509392505050565b600082601f830112610e1d57610e1c610d01565b5b8135610e2d848260208601610dc6565b91505092915050565b600060208284031215610e4c57610e4b610af9565b5b600082013567ffffffffffffffff811115610e6a57610e69610afe565b5b610e7684828501610e08565b91505092915050565b610e8881610c46565b8114610e9357600080fd5b50565b600081359050610ea581610e7f565b92915050565b60008060408385031215610ec257610ec1610af9565b5b6000610ed085828601610b24565b9250506020610ee185828601610e96565b9150509250929050565b6000819050919050565b6000610f10610f0b610f0684610b75565b610eeb565b610b75565b9050919050565b6000610f2282610ef5565b9050919050565b6000610f3482610f17565b9050919050565b610f4481610f29565b82525050565b6000602082019050610f5f6000830184610f3b565b92915050565b7f4e487b7100000000000000000000000000000000000000000000000000000000600052602260045260246000fd5b60006002820490506001821680610fac57607f821691505b602082108103610fbf57610fbe610f65565b5b50919050565b7f566f74696e6720706572696f64206e6f7420656e646564000000000000000000600082015250565b6000610ffb601783610bc1565b915061100682610fc5565b602082019050919050565b6000602082019050818103600083015261102a81610fee565b9050919050565b7f50726f706f73616c20616c726561647920657865637574656400000000000000600082015250565b6000611067601983610bc1565b915061107282611031565b602082019050919050565b600060208201905081810360008301526110968161105a565b9050919050565b7f4e487b7100000000000000000000000000000000000000000000000000000000600052601160045260246000fd5b60006110d782610b03565b91506110e283610b03565b92508282019050808211156110fa576110f961109d565b5b92915050565b60008151905061110f81610b0d565b92915050565b60006020828403121561112b5761112a610af9565b5b600061113984828501611100565b91505092915050565b600061114d82610b03565b915061115883610b03565b925082820261116681610b03565b9150828204841483151761117d5761117c61109d565b5b5092915050565b7f4e487b7100000000000000000000000000000000000000000000000000000000600052601260045260246000fd5b60006111be82610b03565b91506111c983610b03565b9250826111d9576111d8611184565b5b828204905092915050565b7f51756f72756d206e6f7420726561636865640000000000000000000000000000600082015250565b600061121a601283610bc1565b9150611225826111e4565b602082019050919050565b600060208201905081810360008301526112498161120d565b9050919050565b60006020820190506112656000830184610ba7565b92915050565b7f4d75737420686f6c6420676f7665726e616e636520746f6b656e7320746f206360008201527f72656174652070726f706f73616c000000000000000000000000000000000000602082015250565b60006112c7602e83610bc1565b91506112d28261126b565b604082019050919050565b600060208201905081810360008301526112f6816112ba565b9050919050565b600061130882610b03565b91507fffffffffffffffffffffffffffffffffffffffffffffffffffffffffffffffff820361133a5761133961109d565b5b600182019050919050565b60008190508160005260206000209050919050565b60006020601f8301049050919050565b600082821b905092915050565b6000600883026113a77fffffffffffffffffffffffffffffffffffffffffffffffffffffffffffffffff8261136a565b6113b1868361136a565b95508019841693508086168417925050509392505050565b60006113e46113df6113da84610b03565b610eeb565b610b03565b9050919050565b6000819050919050565b6113fe836113c9565b61141261140a826113eb565b848454611377565b825550505050565b600090565b61142761141a565b6114328184846113f5565b505050565b5b818110156114565761144b60008261141f565b600181019050611438565b5050565b601f82111561149b5761146c81611345565b6114758461135a565b81016020851015611484578190505b6114986114908561135a565b830182611437565b50505b505050565b600082821c905092915050565b60006114be600019846008026114a0565b1980831691505092915050565b60006114d783836114ad565b9150826002028217905092915050565b6114f082610bb6565b67ffffffffffffffff81111561150957611508610d0b565b5b6115138254610f94565b61151e82828561145a565b600060209050601f831160018114611551576000841561153f578287015190505b61154985826114cb565b8655506115b1565b601f19841661155f86611345565b60005b8281101561158757848901518255600182019150602085019450602081019050611562565b868310156115a457848901516115a0601f8916826114ad565b8355505b6001600288020188555050505b505050505050565b600060208201905081810360008301526115d38184610c0d565b905092915050565b7f566f74696e67206973206e6f7420616374697665000000000000000000000000600082015250565b6000611611601483610bc1565b915061161c826115db565b602082019050919050565b6000602082019050818103600083015261164081611604565b9050919050565b7f416c726561647920766f74656400000000000000000000000000000000000000600082015250565b600061167d600d83610bc1565b915061168882611647565b602082019050919050565b600060208201905081810360008301526116ac81611670565b9050919050565b7f4d75737420686f6c6420676f7665726e616e636520746f6b656e7320746f207660008201527f6f74650000000000000000000000000000000000000000000000000000000000602082015250565b600061170f602383610bc1565b915061171a826116b3565b604082019050919050565b6000602082019050818103600083015261173e81611702565b9050919050565b600060408201905061175a6000830185610c52565b6117676020830184610b66565b939250505056fea2646970667358221220b6355b85517d229b3a8c506f74dd9821db2dc268bbcf875ec6d2cdbbbd26809564736f6c634300081b0033",
  "linkReferences": {},
  "deployedLinkReferences": {}
}